:0400000002001132B7
:03000B000204A448
:10006A00E4F546F547754164F54275430102000E11
:03000E0002044B9E
:10007A0053877F53890F438920758DFDC29FD29E76
:10008A00D29CD28EC299C2982285829910990280F6
:10009A00FB2210980280FB8599822210980280FB2D
:1000AA0085998212009385998222AD82AE83AFF040
:1000BA008D828E838FF012083DFC60188C82C007F7
:1000CA00C006C005120093D005D006D0070DBD00AA
:1000DA00DF0E80DC22AD82AE83AFF0C007C006C05F
:1000EA000512009CAC82D005D006D0078D828E8383
:1000FA008FF0EC1206BCBC0D0280070DBD00DC0EB1
:10010A0080D98D828E838FF0E40206BC8582248595
:10011A00832575262B85212885222985232AE525ED
:10012A0030E70E75262DC3E49524F524E49525F5CC
:10013A0025A828A929AD2A75270075080A75090076
:10014A00852482852583C005C001C000120859AEE6
:10015A0082D000D001D00574302E888289838DF038
:10016A001206BCA3A882A983052775080A75090087
:10017A00852482852583C005C001C00012088F85A9
:10018A008224858325D000D001D005E52445257039
:10019A00A9AF27742DB5260F888289838DF0742D17
:1001AA001206BCE52704FFE4F524F5258F00790043
:1001BA00750802890988828983C007C001C00012B4
:1001CA00088FAB82AC83D000D001D007C3E5249B53
:1001DA00E52564808CF063F08095F05073EF252854
:1001EA00F52BE43529F52C852A2DC007E524252889
:1001FA00FDE5253529FEAF2A8D828E838FF0120800
:10020A003DFC852B82852C83852DF01206BC18B8FF
:10021A00FF0119E8C39524F8E99525F9E82528F896
:10022A00E93529F9AB2A888289838BF012083DFACD
:10023A008D828E838FF01206BC888289838BF0ECC4
:10024A001206BC0524E4B524020525D0070201B62E
:10025A00EF2528FFE43529FEAD2A8F828E838DF0A3
:10026A00E40206BCAD82AE83AFF07B007C00752E43
:10027A002B8D828E838FF012083DF9B92D08752EC9
:10028A002D0DBD00010E8D828E838FF012083DF96F
:10029A0060398B088C0990000AC007C006C005C0E7
:1002AA000112070785822F858330D001D005D00639
:1002BA00D0077A00E924D0F9EA34FFFAE9252FFBBE
:1002CA00EA3530FC0DBD00BE0E80BB742DB52E077D
:1002DA00C3E49BFBE49CFC8B828C832275213175E1
:1002EA00220075234012011690003175F040020079
:1002FA00B490003875F0401200DF90003875F04075
:10030A0002026EAF827E007508108E098F828E837C
:10031A00C007C00612088FAC82AD83EC247BF5823D
:10032A00ED3409F583E493F582120093D006D007E1
:10033A0053070F7E00EF247BF582EE3409F583E440
:10034A0093F582020093AE82AF838F048C82C0073A
:10035A00C00612030DD006D0078E8202030DAC82AE
:10036A00AD83AEF0FFC007C006C005C004E4C0E01C
:10037A00C0E0C0E0C0E08C828D838EF0EF1206D719
:10038A00AB82E58124FCF581D004D005D006D007E4
:10039A00EB601AEFB2E7FF75822DC007C006C005F1
:1003AA00C004120093D004D005D006D0078C828DE9
:1003BA00838EF0EFC007C006C005C0041207BA1248
:1003CA0002E675822E120093D004D005D006D0071B
:1003DA00AA3FAB40C3E49A74808BF063F08095F037
:1003EA004001221ABAFF011BC003C002C004C005A3
:1003FA00C006C00790000075F02074411205B8AC21
:10040A0082AD83AEF0FFE58124FCF581D002D003F2
:10041A008C828D838EF0EFC007C006C005C004C071
:10042A0003C0021207BA75080A75090012085912A0
:10043A0002E6D002D003D004D005D006D0070203CA
:10044A00DE12007A5389F0438901D2AFD2A9D28C45
:10045A00758C00758A00C2A0D2A1C2A2D2A380F66E
:10046A00AF82BF0109D2A0C2A1D2A2C2A322BF02F7
:10047A0009D2A1C2A2C2A0D2A322E543FF6006E527
:10048A004145427009D2A0D2A1C2A2C2A322BF0191
:10049A0003D2A322BF0202D2A022C020C0E0C0F031
:1004AA00C082C083C007C006C005C004C003C00222
:1004BA00C001C000C0D075D0007401B5460614B59D
:1004CA00470280028006AE437F0080047E007F00E0
:1004DA008E8212046A7401B5460814B54704740181
:1004EA008001E4FF60067D307E7580047D007E0019
:1004FA0085410885420990012CC007C006C0051233
:10050A000707AB82AC83D005D006EDC39BFDEE9CFA
:10051A00FE74FFC39DF54474FF9EF5457508FF758B
:10052A00090085448285458312058FAD828D8C75BD
:10053A0008FF750900854482854583120724AD8228
:10054A00D0078D8AE54145427004FDFE8016EF60B2
:10055A00067C007F00800974012546FCE43547FFCC
:10056A008C058F068D468E47D0D0D000D001D002A0
:10057A00D003D004D005D006D007D083D082D0F0E3
:05058A00D0E0D020329A
:10097B0030313233343536373839414243444546CA
:01098B00006B
:10058F007A10E4FBFCE58225E0F582E58333F58301
:10059F00EB33FBEC33FCEB9508F5F0EC95094006DB
:1005AF00FCABF0438201DADD2212065BBC000302D2
:1005BF00080FEF60FA30D502B2D1E583B4FF030222
:1005CF000825E582B4FF030208252583400724820E
:1005DF00400B02080F2483145003020825F582EA0A
:1005EF008DF0A4A8F0EA8EF0A428F8E435F0F9EB2A
:1005FF008DF0A428E935F0F9E433CA8FF0A429F976
:10060F00EA35F0FAEBF88EF0A429F9EA35F0FAE4BE
:10061F0033FBEC8DF0A429F9EA35F0FAE43BFBE863
:10062F008FF0A42AFAEB35F0FBE433CCFD8EF0A467
:10063F002AFAEB35F0FBE43CFCED8FF0A42BFBEC3E
:10064F0035F0FC20E7031206890207EEAA82AB837E
:10065F00A2F73392D1F5826002D2F7ACF0E5812494
:10066F00F9F8E6FD08E6FE0886F008E6A2F73392F1
:0A067F00D5F5836002D2F7AFF02238
:06004000E478FFF6D8FD94
:100689007804EC7011E58224F8500AF582E4C9CAAD
:10069900CBFCD8EF22EC7820058220E713D5820124
:1006A90022C3E933F9EA33FAEB33FBEC33FCD8EA3A
:0306B90015822285
:10001E007900E94400601B7A0090098C780175A084
:10002E0000E493F2A308B8000205A0D9F4DAF27541
:02003E00A0FF21
:1006BC0020F71130F6138883A88220F509F6A88359
:1006CC007583002280FEF280F5F022FFA8811818B5
:1006DC0012078FD2D133E6400730E70B7582002228
:1006EC0020E70675820122C2D1120771E97003F569
:1006FC00822220D101B3E433F58222E5828508F011
:10070C00A4C582C0F08509F0A4D0F025F0C583857E
:10071C0008F0A42583F58322E508450960467A0193
:10072C00E50825E0F508E509334012F509E5829561
:10073C0008E583950940030A80E6C3E50913F5092A
:10074C00E50813F508C3E5829508F5F0E5839509EE
:10075C004005F58385F082C3E50913F509E5081317
:05076C00F508DAE122AE
:100046007800E84400600A790175A000E4F309D855
:10005600FC7800E84400600C7900900001E4F0A30D
:04006600D8FCD9FAEF
:100771007901AA82E68F82B5821318E6B5F00E18C8
:10078100E6B5830918E68A82B58202790022B4802F
:100791000FE5F0700AE5837006E58270027F00EFD5
:1007A100B6801518B6001018B6000B18B60006086A
:1007B1000808760022080808221208C7700AE58294
:1007C100458345F0700122E430D112F4700BE5F05D
:1007D100F47006E58330E7012290800022700AE57B
:1007E100F07006E58320E70122907FFF22B98003A4
:1007F100EA13B34010EA2401FAE43BFBE43CFC5069
:10080100047C800582BC000EBB000BBA0008E4F535
:10081100F0F583F58222A2D1E582138CF092F78B59
:10082100838A8222E4F583F58275F080F4A2D113E4
:0C08310022E4F583F58275F0C0747F228C
:0D001100758147120922E582600302000E8E
:10083D0020F71430F6148883A88220F507E6A883E4
:10084D0075830022E280F7E49322E022C2D5E5838E
:10085D0030E70DD2D5E4C39582F582E49583F58317
:10086D00E50930E70BE4C39508F508E49509F509AA
:10087D0012072430D50BE4C39582F582E49583F5F8
:10088D008322C2D5E58330E70DD2D5E4C39582F539
:10089D0082E49583F583E50930E70DB2D5E4C39580
:1008AD0008F508E49509F50912058F30D50BE4C359
:1008BD009582F582E49583F58322120926C3749EF1
:1008CD0095824039790012093830D126E9F4240196
:1008DD00F582EAF43400F583EBF43400F5F0ECF432
:1008ED003400700AE582458345F0700122E430E75B
:1008FD000F22EC20E71489828A838BF02230D10AF3
:10090D00E4F582F583F5F074802274FFF582F583AA
:10091D00F5F0747F2275820022AA82AB83A2F73391
:10092D0092D1F5826002D2F7ACF0226040F82582B8
:10093D00500274FFF582E824F8501ECCCBCAF9E4BE
:10094D00CC24F85014CBCAF9E4CB24F8500BCAF9D7
:10095D00E4CA24F8500379002224086010F8C3EC8F
:0E096D0013FCEB13FBEA13FAE913F9D8F1229D
:00000001FF
