:02000000802E50
:040003001200B23203
:04000B001200B332FA
:040013001200B432F1
:04001B001200B532E8
:040023001200B632DF
:10003000C200758921758DFD7598507590FFD2AC01
:10004000D2AFD28E74481200C674651200C6746CAA
:100050001200C6746C1200C6746F1200C6742C12A3
:1000600000C674201200C674381200C67430120024
:10007000C674351200C674311200C674211200C64F
:100080001200CEE590F4B52904C2878023D287F50B
:1000900029F5207903E52075F00A84F52085F030F4
:1000A000C0F0D9F17903D0301200D7D9F91200CEBF
:1000B00080D122222222209805C200C29922E599ED
:1000C000F4F5A0C298222000FDD200F59922740A0E
:0F00D00011C6740D11C622E53024301200C6226D
:00000001FF
