:02000000802E50
:040003001200AC3209
:04000B001200563257
:040013001200AF32F6
:04001B00120090320D
:040023001200B032E5
:10003200752900753000758911752000752100D26F
:10004200A2D2A9D28CD2ABD28ED2AFD2A4D2A312D8
:1000520000CE80FB758CFC758A18B20020000FD28E
:10006200A0E530540F90008093F580C2A122D2A166
:10007200E530C4540F90008093F580C2A022C0F9ED
:10008200A4B0999282F880908883A7A1868E758DFC
:100092003C758BB0202009852130752900D2A2221F
:1000A2001200BC1200B185213022A920222222E5B1
:1000B20021B40003C2A222D2A222A929B9140A752C
:1000C2002900E521600515212205292220A3082007
:1000D2002002052130A3FD20A405B22030A4FD1288
:0C00E20000E5227E1F7FFFDFFEDEFA2219
:00000001FF
