:03000000020006F5
:09005F0075410075420002000326
:030003000204EE06
:1000680053877F53890F438920758DFDC29FD29E88
:10007800D29CD28EC299C298228582991099028008
:10008800FB2210980280FB8599822210980280FB3F
:1000980085998212008185998222AD82AE83AFF064
:1000A8008D828E838FF01207A4FC60188C82C007A3
:1000B800C006C005120081D005D006D0070DBD00CE
:1000C800DF0E80DC22AD82AE83AFF0C007C006C071
:1000D8000512008AAC82D005D006D0078D828E83A7
:1000E8008FF0EC1205FABC0D0280070DBD00DC0E86
:1000F80080D98D828E838FF0E40205FA858224856B
:10010800832575262B85212885222985232AE525FF
:1001180030E70E75262DC3E49524F524E49525F5DE
:1001280025A828A929AD2A75270075080A75090088
:10013800852482852583C005C001C0001207C0AE92
:1001480082D000D001D00574302E888289838DF04A
:100158001205FAA3A882A983052775080A7509005C
:10016800852482852583C005C001C0001207F68555
:100178008224858325D000D001D005E5244525704B
:10018800A9AF27742DB5260F888289838DF0742D29
:100198001205FAE52704FFE4F524F5258F00790018
:1001A800750802890988828983C007C001C00012C6
:1001B80007F6AB82AC83D000D001D007C3E5249BFF
:1001C800E52564808CF063F08095F05073EF252866
:1001D800F52BE43529F52C852A2DC007E52425289B
:1001E800FDE5253529FEAF2A8D828E838FF0120713
:1001F800A4FC852B82852C83852DF01205FA18B86E
:10020800FF0119E8C39524F8E99525F9E82528F8A8
:10021800E93529F9AB2A888289838BF01207A4FA79
:100228008D828E838FF01205FA888289838BF0EC99
:100238001205FA0524E4B524020525D0070201A415
:10024800EF2528FFE43529FEAD2A8F828E838DF0B5
:10025800E40205FAAD82AE83AFF07B007C00752E18
:100268002B8D828E838FF01207A4F9B92D08752E75
:100278002D0DBD00010E8D828E838FF01207A4F91B
:1002880060398B088C0990000AC007C006C005C0F9
:100298000112064585822F858330D001D005D0060E
:1002A800D0077A00E924D0F9EA34FFFAE9252FFBD0
:1002B800EA3530FC0DBD00BE0E80BB742DB52E078F
:1002C800C3E49BFBE49CFC8B828C832275213175F3
:1002D800220075234012010490003175F04002009D
:1002E800A290003875F0401200CD90003875F040AB
:1002F80002025CAF827E007508108E098F828E83A1
:10030800C007C0061207F6AC82AD83EC24E2F58282
:10031800ED3408F583E493F582120081D006D00706
:1003280053070F7E00EF24E2F582EE3408F583E4EC
:1003380093F582020081AE82AF838F048C82C0075E
:10034800C0061202FBD006D0078E820202FBAC82E6
:10035800AD83AEF0FFC007C006C005C004E4C0E02E
:10036800C0E0C0E0C0E08C828D838EF0EF120615ED
:10037800AB82E58124FCF581D004D005D006D007F6
:10038800EB601AEFB2E7FF75822DC007C006C00503
:10039800C004120081D004D005D006D0078C828D0D
:1003A800838EF0EFC007C006C005C00412072112F3
:1003B80002D475822E120081D004D005D006D00751
:1003C800AA3FAB40C3E49A74808BF063F08095F049
:1003D8004001221ABAFF011BC003C002C004C005B5
:1003E800C006C00790000075F02074411204F6ACF6
:1003F80082AD83AEF0FFE58124FCF581D002D00305
:100408008C828D838EF0EFC007C006C005C004C083
:1004180003C00212072175080A7509001207C012E5
:1004280002D4D002D003D004D005D006D0070203EE
:10043800CCAE82AF838E048F051EBEFF011FEC4D2C
:1004480070F3223000067E017F0080047E087F0062
:100458008E809000C81204397F038F061FEE601D3E
:10046800300007E58025E0FE8005E580C313FE8E99
:10047800809000C8C007120439D00780DD7580005D
:100488002212008A8582437473B543081202E9AECA
:10049800828E41227472B543028005746CB543455F
:1004A8001202E9AE82AF83E541C313FD7C002EF54D
:1004B80046EC3FF547AE46AF47154674FFB54602D2
:1004C8001547EE4F601F7472B54303D38001C39282
:1004D8000012044B85410875090090000A12064570
:0E04E80012043980D02212006812048980FBB1
:1008E2003031323334353637383941424344454664
:0108F2000005
:1004F600120599BC0003020776EF60FA30D502B206
:10050600D1E583B4FF0302078CE582B4FF0302073B
:100516008C258340072482400B02077624831450DF
:100526000302078CF582EA8DF0A4A8F0EA8EF0A407
:1005360028F8E435F0F9EB8DF0A428E935F0F9E474
:1005460033CA8FF0A429F9EA35F0FAEBF88EF0A455
:1005560029F9EA35F0FAE433FBEC8DF0A429F9EA3F
:1005660035F0FAE43BFBE88FF0A42AFAEB35F0FB12
:10057600E433CCFD8EF0A42AFAEB35F0FBE43CFC28
:10058600ED8FF0A42BFBEC35F0FC20E7031205C73A
:10059600020755AA82AB83A2F73392D1F582600295
:1005A600D2F7ACF0E58124F9F8E6FD08E6FE088608
:1005B600F008E6A2F73392D5F5836002D2F7AFF0E2
:0105C6002212
:06003500E478FFF6D8FD9F
:1005C7007804EC7011E58224F8500AF582E4C9CA70
:1005D700CBFCD8EF22EC7820058220E713D58201E7
:1005E70022C3E933F9EA33FAEB33FBEC33FCD8EAFD
:0305F70015822248
:100013007900E94400601B7A009008F3780175A029
:1000230000E493F2A308B8000205A0D9F4DAF2754C
:02003300A0FF2C
:1005FA0020F71130F6138883A88220F509F6A8831C
:10060A007583002280FEF280F5F022FFA881181877
:10061A001206F6D2D133E6400730E70B7582002284
:10062A0020E70675820122C2D11206D8E97003F5C5
:10063A00822220D101B3E433F58222E5828508F0D3
:10064A00A4C582C0F08509F0A4D0F025F0C5838541
:10065A0008F0A42583F58322E508450960467A0156
:10066A00E50825E0F508E509334012F509E5829524
:10067A0008E583950940030A80E6C3E50913F509ED
:10068A00E50813F508C3E5829508F5F0E5839509B1
:10069A004005F58385F082C3E50913F509E50813DA
:0506AA00F508DAE12271
:10003B007800E84400600A790175A000E4F309D860
:10004B00FC7800E84400600C7900900001E4F0A318
:04005B00D8FCD9FAFA
:1006AF007A10E4FBFCE58225E0F582E58333F583E0
:1006BF00EB33FBEC33FCEB9508F5F0EC95094006BA
:1006CF00FCABF0438201DADD227901AA82E68F8248
:1006DF00B5821318E6B5F00E18E6B5830918E68A49
:1006EF0082B58202790022B4800FE5F0700AE583AB
:1006FF007006E58270027F00EFB6801518B6001005
:10070F0018B6000B18B6000608080876002208086D
:10071F00082212082E700AE582458345F0700122E7
:10072F00E430D112F4700BE5F0F47006E58330E796
:10073F00012290800022700AE5F07006E58320E721
:10074F000122907FFF22B98003EA13B34010EA24FD
:10075F0001FAE43BFBE43CFC50047C800582BC00C6
:10076F000EBB000BBA0008E4F5F0F583F58222A268
:10077F00D1E582138CF092F78B838A8222E4F58382
:10078F00F58275F080F4A2D11322E4F583F582751A
:05079F00F0C0747F2290
:0D000600758147120889E58260030200033E
:1007A40020F71430F6148883A88220F507E6A8837E
:1007B40075830022E280F7E49322E022C2D5E58328
:1007C40030E70DD2D5E4C39582F582E49583F583B1
:1007D400E50930E70BE4C39508F508E49509F50944
:1007E40012066230D50BE4C39582F582E49583F555
:1007F4008322C2D5E58330E70DD2D5E4C39582F5D3
:1008040082E49583F583E50930E70DB2D5E4C39519
:1008140008F508E49509F5091206AF30D50BE4C3D1
:100824009582F582E49583F5832212088DC3749E24
:1008340095824039790012089F30D126E9F42401C9
:10084400F582EAF43400F583EBF43400F5F0ECF4CB
:100854003400700AE582458345F0700122E430E7F4
:100864000F22EC20E71489828A838BF02230D10A8C
:10087400E4F582F583F5F074802274FFF582F58344
:10088400F5F0747F2275820022AA82AB83A2F7332B
:1008940092D1F5826002D2F7ACF0226040F8258252
:1008A400500274FFF582E824F8501ECCCBCAF9E458
:1008B400CC24F85014CBCAF9E4CB24F8500BCAF971
:1008C400E4CA24F8500379002224086010F8C3EC29
:0E08D40013FCEB13FBEA13FAE913F9D8F12237
:00000001FF
