:0600000002002902018A42
:03000B0002018B64
:0300130002018C5B
:03001B0002018D52
:0300230002018E49
:10008200750881750942750A24750B18750C187567
:0B0092000D24750E42750F8102002640
:0300260002009D38
:10009D007590FF74FFB590367E007F008E058DF054
:1000AD0005F07401800225E0D5F0FBF4F5A0902752
:1000BD0010C007C00612018FD006D0070EBE00017A
:1000CD000FC3EE9408EF6480948040D080C574FE19
:1000DD00B590417E007F008EF005F07C80E4FD330D
:1000ED0092D28008A2D2ED13FDEC13FCD5F0F5EC05
:1000FD00F4F5A09003E8C007C00612018FD006D01A
:10010D00070EBE00010FC3EE9408EF64809480408B
:10011D00C60200A074FDB5902D7E007F00EE240870
:10012D00F9E7F4F5A09003E8C007C00612018FD0DF
:10013D0006D0070EBE00010FC3EE9408EF64809445
:10014D008040DA0200A074FBB5900280030200A08B
:10015D007E007F00EE240CF9E7F4F5A09003E8C0D3
:10016D0007C00612018FD006D0070EBE00010FC3C7
:10017D00EE9408EF6480948040DA0200A0323232AF
:10018D00323285821085831190000B1201B2AE823E
:10019D00AF837C007D00C3EC9EED9F50070CBC002F
:0501AD00F50D80F222B7
:06005800E478FFF6D8FD7C
:100036007900E94400601B7A009001D3780175A02D
:1000460000E493F2A308B8000205A0D9F4DAF27529
:02005600A0FF09
:1001B200E5828510F0A4C582C0F08511F0A4D0F0CC
:0D01C20025F0C5838510F0A42583F5832268
:10005E007800E84400600A790175A000E4F309D83D
:10006E00FC7800E84400600C7900900001E4F0A3F5
:04007E00D8FCD9FAD7
:0D0029007581111201CFE5826003020026EF
:0401CF007582002213
:00000001FF
