:0600000002002902046762
:03000B0002046884
:030013000204697B
:03001B0002046A72
:0300230002046B69
:0300820002002653
:030026000204567B
:1000850053877F53890F438920758DFDC29FD29E6B
:10009500D29CD28EC299C2982285829910990280EB
:1000A500FB2210980280FB8599822210980280FB22
:1000B50085998212009E85998222AD82AE83AFF02A
:1000C5008D828E838FF0120740FC60188C82C007EA
:1000D500C006C00512009ED005D006D0070DBD0094
:1000E500DF0E80DC22AD82AE83AFF0C007C006C054
:1000F500051200A7AC82D005D006D0078D828E836D
:100105008FF0EC120596BC0D0280070DBD00DC0ECC
:1001150080D98D828E838FF0E402059685820B85CA
:10012500830C750D2B85080F850910850A11E50CC3
:1001350030E70E750D2DC3E4950BF50BE4950CF525
:100145000CA80FA910AD11750E0075350A7536008E
:10015500850B82850C83C005C001C00012075CAE0B
:1001650082D000D001D00574302E888289838DF02D
:10017500120596A3A882A983050E75350A75360062
:10018500850B82850C83C005C001C00012079285CE
:10019500820B85830CD000D001D005E50B450C7092
:1001A500A9AF0E742DB50D0F888289838DF0742D3E
:1001B500120596E50E04FFE4F50BF50C8F007900AA
:1001C500753502893688828983C007C001C000124F
:1001D5000792AB82AC83D000D001D007C3E50B9B5F
:1001E500E50C64808CF063F08095F05073EF250F7B
:1001F500F512E43510F513851114C007E50B250F2D
:10020500FDE50C3510FEAF118D828E838FF0120740
:1002150040FC8512828513838514F012059618B863
:10022500FF0119E8C3950BF8E9950CF9E8250FF8D6
:10023500E93510F9AB11888289838BF0120740FAF2
:100245008D828E838FF0120596888289838BF0ECE0
:10025500120596050BE4B50B02050CD0070201C18A
:10026500EF250FFFE43510FEAD118F828E838DF0E3
:10027500E4020596AD82AE83AFF07B007C00751578
:100285002B8D828E838FF0120740F9B92D087515D5
:100295002D0DBD00010E8D828E838FF0120740F962
:1002A50060398B358C3690000AC007C006C005C082
:1002B500011205E1858216858317D001D005D00688
:1002C500D0077A00E924D0F9EA34FFFAE92516FBCC
:1002D500EA3517FC0DBD00BE0E80BB742DB51507A4
:1002E500C3E49BFBE49CFC8B828C83227508187508
:1002F5000900750A4012012190001875F0400200AE
:10030500BF90001F75F0401200EA90001F75F04085
:10031500020279AF827E007535108E368F828E830C
:10032500C007C006120792AC82AD83EC247EF5822D
:10033500ED3408F583E493F58212009ED006D007CC
:1003450053070F7E00EF247EF582EE3408F583E433
:1003550093F58202009EAE82AF838F048C82C00724
:10036500C006120318D006D0078E82020318AC828D
:10037500AD83AEF0FFC007C006C005C004E4C0E011
:10038500C0E0C0E0C0E08C828D838EF0EF1205B135
:10039500AB82E58124FCF581D004D005D006D007D9
:1003A500EB601AEFB2E7FF75822DC007C006C005E6
:1003B500C00412009ED004D005D006D0078C828DD3
:1003C500838EF0EFC007C006C005C0041206BD123B
:1003D50002F175822E12009ED004D005D006D007FA
:1003E500AA26AB27C3E49A74808BF063F08095F05E
:1003F5004001221ABAFF011BC003C002C004C00598
:10040500C006C00790000075F0207441120492AC3C
:1004150082AD83AEF0FFE58124FCF581D002D003E7
:100425008C828D838EF0EFC007C006C005C004C066
:1004350003C0021206BD75350A75360012075C1237
:1004450002F1D002D003D004D005D006D0070203B4
:10045500E975A0FF12008590088F75F0801200BF26
:1004650080F53232323232AE82AF83E4F532F53383
:10047500C3E5329EE5339F501375340BD534FD75B6
:0D048500340B0532E4B532E8053380E42283
:10087E0030313233343536373839414243444546C8
:10088E0000696E697469616C2E2E2E0A006E756D8C
:0A089E00626572203D20000A0A0086
:10049200120535BC0003020712EF60FA30D502B232
:1004A200D1E583B4FF03020728E582B4FF03020704
:1004B20028258340072482400B020712248314500C
:1004C20003020728F582EA8DF0A4A8F0EA8EF0A4D0
:1004D20028F8E435F0F9EB8DF0A428E935F0F9E4D9
:1004E20033CA8FF0A429F9EA35F0FAEBF88EF0A4BA
:1004F20029F9EA35F0FAE433FBEC8DF0A429F9EAA4
:1005020035F0FAE43BFBE88FF0A42AFAEB35F0FB76
:10051200E433CCFD8EF0A42AFAEB35F0FBE43CFC8C
:10052200ED8FF0A42BFBEC35F0FC20E70312056302
:100532000206F1AA82AB83A2F73392D1F58260025E
:10054200D2F7ACF0E58124F9F8E6FD08E6FE08866C
:10055200F008E6A2F73392D5F5836002D2F7AFF046
:010562002276
:06005800E478FFF6D8FD7C
:100563007804EC7011E58224F8500AF582E4C9CAD4
:10057300CBFCD8EF22EC7820058220E713D582014B
:1005830022C3E933F9EA33FAEB33FBEC33FCD8EA61
:03059300158222AC
:100036007900E94400601B7A009008A8780175A051
:1000460000E493F2A308B8000205A0D9F4DAF27529
:02005600A0FF09
:1005960020F71130F6138883A88220F509F6A88380
:1005A6007583002280FEF280F5F022FFA8811818DC
:1005B600120692D2D133E6400730E70B758200224D
:1005C60020E70675820122C2D1120674E97003F58E
:1005D600822220D101B3E433F58222E5828535F00B
:1005E600A4C582C0F08536F0A4D0F025F0C5838579
:1005F60035F0A42583F58322E535453660467A0134
:10060600E53525E0F535E536334012F536E58295D4
:1006160035E583953640030A80E6C3E53613F5369D
:10062600E53513F535C3E5829535F5F0E583953661
:100636004005F58385F082C3E53613F536E53513B7
:05064600F535DAE122A8
:10005E007800E84400600A790175A000E4F309D83D
:10006E00FC7800E84400600C7900900001E4F0A3F5
:04007E00D8FCD9FAD7
:10064B007A10E4FBFCE58225E0F582E58333F58344
:10065B00EB33FBEC33FCEB9535F5F0EC95364006C4
:10066B00FCABF0438201DADD227901AA82E68F82AC
:10067B00B5821318E6B5F00E18E6B5830918E68AAD
:10068B0082B58202790022B4800FE5F0700AE5830F
:10069B007006E58270027F00EFB6801518B6001069
:1006AB0018B6000B18B600060808087600220808D2
:1006BB0008221207CA700AE582458345F0700122B1
:1006CB00E430D112F4700BE5F0F47006E58330E7FB
:1006DB00012290800022700AE5F07006E58320E786
:1006EB000122907FFF22B98003EA13B34010EA2462
:1006FB0001FAE43BFBE43CFC50047C800582BC002B
:10070B000EBB000BBA0008E4F5F0F583F58222A2CC
:10071B00D1E582138CF092F78B838A8222E4F583E6
:10072B00F58275F080F4A2D11322E4F583F582757E
:05073B00F0C0747F22F4
:0D002900758136120825E58260030200266D
:1007400020F71430F6148883A88220F507E6A883E2
:1007500075830022E280F7E49322E022C2D5E5838C
:1007600030E70DD2D5E4C39582F582E49583F58315
:10077000E53630E70BE4C39535F535E49536F536C7
:100780001205FE30D50BE4C39582F582E49583F51E
:100790008322C2D5E58330E70DD2D5E4C39582F537
:1007A00082E49583F583E53630E70DB2D5E4C39551
:1007B00035F535E49536F53612064B30D50BE4C3E6
:1007C0009582F582E49583F58322120829C3749EED
:1007D00095824039790012083B30D126E9F4240192
:1007E000F582EAF43400F583EBF43400F5F0ECF430
:1007F0003400700AE582458345F0700122E430E759
:100800000F22EC20E71489828A838BF02230D10AF0
:10081000E4F582F583F5F074802274FFF582F583A8
:10082000F5F0747F2275820022AA82AB83A2F7338F
:1008300092D1F5826002D2F7ACF0226040F82582B6
:10084000500274FFF582E824F8501ECCCBCAF9E4BC
:10085000CC24F85014CBCAF9E4CB24F8500BCAF9D5
:10086000E4CA24F8500379002224086010F8C3EC8D
:0E08700013FCEB13FBEA13FAE913F9D8F1229B
:00000001FF
