:03000000020006F5
:03005F0002000399
:03000300020108EF
:1000620043901F3094FDE590540FFF2094FD8F8242
:100072002243901F3094FDE590540FFF2094FD8F92
:100082008222120073E582C454F0FFC0071200738B
:10009200AE82D007EE2FF58222120084AE827F005C
:1000A200C007C006120084AD82D006D0077C00EDE6
:1000B2002FF582EC3EF5832243901F30940BE5909E
:1000C200540FFF2094FD8F8222758210227E007FC2
:1000D20000C007C006120062AD82D006D0078D04B0
:1000E200BD0A00501C8E088F0990000AC00412013C
:1000F20013AB82AD83D0047A00EC2BFEEA3DFF8085
:10010200D08E828F8322120062E582FFF4F5A080F6
:01011200F5F7
:06003500E478FFF6D8FD9F
:100013007900E94400601B7A00900134780175A0EF
:1000230000E493F2A308B8000205A0D9F4DAF2754C
:02003300A0FF2C
:10011300E5828508F0A4C582C0F08509F0A4D0F07B
:0D01230025F0C5838508F0A42583F583220F
:10003B007800E84400600A790175A000E4F309D860
:10004B00FC7800E84400600C7900900001E4F0A318
:04005B00D8FCD9FAFA
:0D000600758109120130E5826003020003DC
:0401300075820022B2
:00000001FF
