:03000000020006F5
:03005F0002000399
:030003000204D91B
:1000620053877F53890F438920758DFDC29FD29E8E
:10007200D29CD28EC299C29822858299109902800E
:10008200FB2210980280FB8599822210980280FB45
:1000920085998212007B85998222AD82AE83AFF070
:1000A2008D828E838FF0120796FC60188C82C007B7
:1000B200C006C00512007BD005D006D0070DBD00DA
:1000C200DF0E80DC22AD82AE83AFF0C007C006C077
:1000D20005120084AC82D005D006D0078D828E83B3
:1000E2008FF0EC1205ECBC0D0280070DBD00DC0E9A
:1000F20080D98D828E838FF0E40205EC85820B8598
:10010200830C750D2B85080F850910850A11E50CE6
:1001120030E70E750D2DC3E4950BF50BE4950CF548
:100122000CA80FA910AD11750E0075280A752900CB
:10013200850B82850C83C005C001C0001207B2AED8
:1001420082D000D001D00574302E888289838DF050
:100152001205ECA3A882A983050E75280A75290049
:10016200850B82850C83C005C001C0001207E8859B
:10017200820B85830CD000D001D005E50B450C70B5
:10018200A9AF0E742DB50D0F888289838DF0742D61
:100192001205ECE50E04FFE4F50BF50C8F00790077
:1001A200752802892988828983C007C001C000128C
:1001B20007E8AB82AC83D000D001D007C3E50B9B2C
:1001C200E50C64808CF063F08095F05073EF250F9E
:1001D200F512E43510F513851114C007E50B250F50
:1001E200FDE50C3510FEAF118D828E838FF0120764
:1001F20096FC8512828513838514F01205EC18B8DB
:10020200FF0119E8C3950BF8E9950CF9E8250FF8F9
:10021200E93510F9AB11888289838BF0120796FABF
:100222008D828E838FF01205EC888289838BF0ECAD
:100232001205EC050BE4B50B02050CD00702019E7A
:10024200EF250FFFE43510FEAD118F828E838DF006
:10025200E40205ECAD82AE83AFF07B007C00751545
:100262002B8D828E838FF0120796F9B92D087515A2
:100272002D0DBD00010E8D828E838FF0120796F92F
:1002820060398B288C2990000AC007C006C005C0BF
:1002920001120637858216858317D001D005D00654
:1002A200D0077A00E924D0F9EA34FFFAE92516FBEF
:1002B200EA3517FC0DBD00BE0E80BB742DB51507C7
:1002C200C3E49BFBE49CFC8B828C8322750818752B
:1002D2000900750A401200FE90001875F0400200F5
:1002E2009C90001F75F0401200C790001F75F040EF
:1002F200020256AF827E007528108E298F828E836D
:10030200C007C0061207E8AC82AD83EC24D4F582A4
:10031200ED3408F583E493F58212007BD006D00712
:1003220053070F7E00EF24D4F582EE3408F583E400
:1003320093F58202007BAE82AF838F048C82C0076A
:10034200C0061202F5D006D0078E820202F5AC82F8
:10035200AD83AEF0FFC007C006C005C004E4C0E034
:10036200C0E0C0E0C0E08C828D838EF0EF12060701
:10037200AB82E58124FCF581D004D005D006D007FC
:10038200EB601AEFB2E7FF75822DC007C006C00509
:10039200C00412007BD004D005D006D0078C828D19
:1003A200838EF0EFC007C006C005C0041207131207
:1003B20002CE75822E12007BD004D005D006D00763
:1003C200AA26AB27C3E49A74808BF063F08095F081
:1003D2004001221ABAFF011BC003C002C004C005BB
:1003E200C006C00790000075F02074411204E8AC0A
:1003F20082AD83AEF0FFE58124FCF581D002D0030B
:100402008C828D838EF0EFC007C006C005C004C089
:1004120003C00212071375280A7529001207B212C7
:1004220002CED002D003D004D005D006D0070203FA
:10043200C643901F3094FDE590540FFF2094FD8F2A
:10044200822243901F3094FDE590540FFF2094FDCB
:100452008F8222120444E582C454F0FFC0071204C2
:1004620044AE82D007EE2FF58222120455AE827F6F
:1004720000C007C006120455AD82D006D0077C002A
:10048200ED2FF582EC3EF5832243901F30940BE56D
:1004920090540FFF2094FD8F8222758210227E00DD
:1004A2007F00C007C006120433AD82D006D0078D8C
:1004B20004BD0A00501C8E288F2990000AC0041225
:1004C2000637AB82AD83D0047A00EC2BFEEA3DFF07
:1004D20080D08E828F83221200621204337E008EBD
:0604E200831202CE80F43B
:1008D4003031323334353637383941424344454672
:0108E4000013
:1004E80012058BBC0003020768EF60FA30D502B230
:1004F800D1E583B4FF0302077EE582B4FF03020758
:100508007E258340072482400B0207682483145009
:100518000302077EF582EA8DF0A4A8F0EA8EF0A423
:1005280028F8E435F0F9EB8DF0A428E935F0F9E482
:1005380033CA8FF0A429F9EA35F0FAEBF88EF0A463
:1005480029F9EA35F0FAE433FBEC8DF0A429F9EA4D
:1005580035F0FAE43BFBE88FF0A42AFAEB35F0FB20
:10056800E433CCFD8EF0A42AFAEB35F0FBE43CFC36
:10057800ED8FF0A42BFBEC35F0FC20E7031205B956
:10058800020747AA82AB83A2F73392D1F5826002B1
:10059800D2F7ACF0E58124F9F8E6FD08E6FE088616
:1005A800F008E6A2F73392D5F5836002D2F7AFF0F0
:0105B8002220
:06003500E478FFF6D8FD9F
:1005B9007804EC7011E58224F8500AF582E4C9CA7E
:1005C900CBFCD8EF22EC7820058220E713D58201F5
:1005D90022C3E933F9EA33FAEB33FBEC33FCD8EA0B
:0305E90015822256
:100013007900E94400601B7A009008E5780175A037
:1000230000E493F2A308B8000205A0D9F4DAF2754C
:02003300A0FF2C
:1005EC0020F71130F6138883A88220F509F6A8832A
:1005FC007583002280FEF280F5F022FFA881181886
:10060C001206E8D2D133E6400730E70B75820022A0
:10061C0020E70675820122C2D11206CAE97003F5E1
:10062C00822220D101B3E433F58222E5828528F0C1
:10063C00A4C582C0F08529F0A4D0F025F0C583852F
:10064C0028F0A42583F58322E528452960467A0104
:10065C00E52825E0F528E529334012F529E58295B2
:10066C0028E583952940030A80E6C3E52913F5297B
:10067C00E52813F528C3E5829528F5F0E58395293F
:10068C004005F58385F082C3E52913F529E5281388
:05069C00F528DAE1225F
:10003B007800E84400600A790175A000E4F309D860
:10004B00FC7800E84400600C7900900001E4F0A318
:04005B00D8FCD9FAFA
:1006A1007A10E4FBFCE58225E0F582E58333F583EE
:1006B100EB33FBEC33FCEB9528F5F0EC9529400688
:1006C100FCABF0438201DADD227901AA82E68F8256
:1006D100B5821318E6B5F00E18E6B5830918E68A57
:1006E10082B58202790022B4800FE5F0700AE583B9
:1006F1007006E58270027F00EFB6801518B6001013
:1007010018B6000B18B6000608080876002208087B
:100711000822120820700AE582458345F070012203
:10072100E430D112F4700BE5F0F47006E58330E7A4
:10073100012290800022700AE5F07006E58320E72F
:100741000122907FFF22B98003EA13B34010EA240B
:1007510001FAE43BFBE43CFC50047C800582BC00D4
:100761000EBB000BBA0008E4F5F0F583F58222A276
:10077100D1E582138CF092F78B838A8222E4F58390
:10078100F58275F080F4A2D11322E4F583F5827528
:05079100F0C0747F229E
:0D00060075812912087BE58260030200036A
:1007960020F71430F6148883A88220F507E6A8838C
:1007A60075830022E280F7E49322E022C2D5E58336
:1007B60030E70DD2D5E4C39582F582E49583F583BF
:1007C600E52930E70BE4C39528F528E49529F529B2
:1007D60012065430D50BE4C39582F582E49583F571
:1007E6008322C2D5E58330E70DD2D5E4C39582F5E1
:1007F60082E49583F583E52930E70DB2D5E4C39508
:1008060028F528E49529F5291206A130D50BE4C36D
:100816009582F582E49583F5832212087FC3749E40
:1008260095824039790012089130D126E9F42401E5
:10083600F582EAF43400F583EBF43400F5F0ECF4D9
:100846003400700AE582458345F0700122E430E702
:100856000F22EC20E71489828A838BF02230D10A9A
:10086600E4F582F583F5F074802274FFF582F58352
:10087600F5F0747F2275820022AA82AB83A2F73339
:1008860092D1F5826002D2F7ACF0226040F8258260
:10089600500274FFF582E824F8501ECCCBCAF9E466
:1008A600CC24F85014CBCAF9E4CB24F8500BCAF97F
:1008B600E4CA24F8500379002224086010F8C3EC37
:0E08C60013FCEB13FBEA13FAE913F9D8F12245
:00000001FF
