:100000007590FF75A0FF7408F4309008309113309C
:100010009248019275A0001200DA75A0FF1200DA72
:1000200080E175A07F1200DA75A0BF1200DA75A01A
:10003000DF1200DA75A0EF1200DA75A0F71200DA0D
:1000400075A0FB1200DA75A0FD1200DA75A0FE1291
:1000500000DA75A0FF1200DA80A975A0FE1200DA9E
:1000600075A0FD1200DA75A0FB1200DA75A0F71278
:1000700000DA75A0EF1200DA75A0DF1200DA75A0C1
:10008000BF1200DA75A07F1200DA75A0FF1200DA45
:100090000103309305309422010375A07E1200DA2B
:1000A00075A0BD1200DA75A0DB1200DA75A0E712A8
:1000B00000DA75A0FF1200DA010375A0E71200DA7A
:1000C00075A0DB1200DA75A0BD1200DA75A07E12F1
:1000D00000DA75A0FF1200DA010378FF79FFD9FE7C
:0300E000D8FA2229
:00000001FF
